{"abi":[{"type":"function","name":"addPerson","inputs":[{"name":"_name","type":"string","internalType":"string"},{"name":"_favoriteNumber","type":"uint256","internalType":"uint256"}],"outputs":[],"stateMutability":"nonpayable"},{"type":"function","name":"listOfPeople","inputs":[{"name":"","type":"uint256","internalType":"uint256"}],"outputs":[{"name":"myFavoriteNumber","type":"uint256","internalType":"uint256"},{"name":"name","type":"string","internalType":"string"}],"stateMutability":"view"},{"type":"function","name":"nameToFavoriteNumber","inputs":[{"name":"","type":"string","internalType":"string"}],"outputs":[{"name":"","type":"uint256","internalType":"uint256"}],"stateMutability":"view"},{"type":"function","name":"retrieve","inputs":[],"outputs":[{"name":"","type":"uint256","internalType":"uint256"}],"stateMutability":"view"},{"type":"function","name":"store","inputs":[{"name":"_favoriteNumber","type":"uint256","internalType":"uint256"}],"outputs":[],"stateMutability":"nonpayable"}],"bytecode":{"object":"0x6080604052348015600f57600080fd5b506105808061001f6000396000f3fe608060405234801561001057600080fd5b50600436106100575760003560e01c80632e64cec11461005c5780632ebce631146100735780636057361d146100945780636f760f41146100a95780638bab8dd5146100bc575b600080fd5b6000545b6040519081526020015b60405180910390f35b610086610081366004610248565b6100e7565b60405161006a929190610285565b6100a76100a2366004610248565b600055565b005b6100a76100b7366004610364565b61019f565b6100606100ca3660046103a9565b805160208183018101805160028252928201919093012091525481565b600181815481106100f757600080fd5b6000918252602090912060029091020180546001820180549193509061011c906103e6565b80601f0160208091040260200160405190810160405280929190818152602001828054610148906103e6565b80156101955780601f1061016a57610100808354040283529160200191610195565b820191906000526020600020905b81548152906001019060200180831161017857829003601f168201915b5050505050905082565b6040805180820190915281815260208101838152600180548082018255600091909152825160029091027fb10e2d527612073b26eecdfd717e6a320cf44b4afac2b0732d9fcbe2b7fa0cf68101918255915190917fb10e2d527612073b26eecdfd717e6a320cf44b4afac2b0732d9fcbe2b7fa0cf70190610220908261046f565b50505080600283604051610234919061052e565b908152604051908190036020019020555050565b60006020828403121561025a57600080fd5b5035919050565b60005b8381101561027c578181015183820152602001610264565b50506000910152565b82815260406020820152600082518060408401526102aa816060850160208701610261565b601f01601f1916919091016060019392505050565b634e487b7160e01b600052604160045260246000fd5b600082601f8301126102e657600080fd5b813567ffffffffffffffff811115610300576103006102bf565b604051601f8201601f19908116603f0116810167ffffffffffffffff8111828210171561032f5761032f6102bf565b60405281815283820160200185101561034757600080fd5b816020850160208301376000918101602001919091529392505050565b6000806040838503121561037757600080fd5b823567ffffffffffffffff81111561038e57600080fd5b61039a858286016102d5565b95602094909401359450505050565b6000602082840312156103bb57600080fd5b813567ffffffffffffffff8111156103d257600080fd5b6103de848285016102d5565b949350505050565b600181811c908216806103fa57607f821691505b60208210810361041a57634e487b7160e01b600052602260045260246000fd5b50919050565b601f82111561046a57806000526020600020601f840160051c810160208510156104475750805b601f840160051c820191505b818110156104675760008155600101610453565b50505b505050565b815167ffffffffffffffff811115610489576104896102bf565b61049d8161049784546103e6565b84610420565b6020601f8211600181146104d157600083156104b95750848201515b600019600385901b1c1916600184901b178455610467565b600084815260208120601f198516915b8281101561050157878501518255602094850194600190920191016104e1565b508482101561051f5786840151600019600387901b60f8161c191681555b50505050600190811b01905550565b60008251610540818460208701610261565b919091019291505056fea26469706673582212203bfd1bad2c5ce3cb01efa927f0ef5bddd09af9cf3fed72bb191f6f45ed4b3cce64736f6c634300081a0033","linkReferences":{}},"methodIdentifiers":{"addPerson(string,uint256)":"6f760f41","listOfPeople(uint256)":"2ebce631","nameToFavoriteNumber(string)":"8bab8dd5","retrieve()":"2e64cec1","store(uint256)":"6057361d"},"id":0}